:1020000000800020D12F0000B92F0000B92F000060
:1020100000000000000000000000000000000000C0
:10202000000000000000000000000000B92F0000C8
:102030000000000000000000B92F00002530000063
:10204000B92F0000B92F0000B92F0000B92F0000F0
:10205000B92F0000B92F0000B92F0000BD2F0000DC
:10206000B92F0000B92F0000B92F0000B92F0000D0
:10207000B92F0000B92F0000D1260000B92F0000B1
:10208000B92F0000B92F0000B92F0000B92F0000B0
:1020900000000000B92F0000B92F0000B92F000088
:1020A000B92F0000B92F0000B92F0000B92F000090
:1020B0000000000010B5064C2378002B07D1054B1B
:1020C000002B02D0044800E000BF0123237010BDA4
:1020D000A000002000000000E0520000044B10B5FA
:1020E000002B03D00349044800E000BF10BDC046E8
:1020F00000000000A4000020E052000013B5FA2404
:1021000007211E2001F0EAF9A4000121002000F0BF
:102110009BFA200000F0CAFF00F0A8F900F068FA6E
:102120000323012101A8019300F073FA200000F0BD
:10213000BDFF00210F2001F059F900210E2001F010
:1021400055F900210C2001F051F900210D2001F07A
:102150004DF90021212001F049F900211F2001F053
:1021600045F900211C2001F041F913BD10B5FFF71E
:10217000C5FF10BD704700000123044A83400029B9
:1021800001D0936170475361FCE7C04600440041B1
:10219000F0B500242500270087B004900191029239
:1021A0000593049BBB4201D807B0F0BD002D09D1B7
:1021B000FF230093019B002B04D01B780093019B0D
:1021C000013301930122D440154E0099336A114026
:1021D000DB0B1340DB011C43049B0392013BBB421E
:1021E00003D11300059A534003930C20FFF7C4FF5B
:1021F000039B002B03D080239B01B3617361009B81
:1022000001355B08DBB2009307231D4006D1029B1A
:10221000002B03D01C702C00013302930137C0E760
:102220000044004110B5010004000E20FFF7A4FF98
:102230008022074B92019A615A61064B064A187830
:1022400040000019800080581870C0B210BDC04610
:1022500000440041000000200C4E00000D4B10B562
:102260001B780F2B0AD0082B08D00124A3420FD8CB
:102270000020FFF7D7FF0020FFF7D4FF0120FFF772
:10228000D1FF0020FFF7CEFF0020FFF7CBFF002497
:10229000200010BD00000020074B10B51B78012462
:1022A0000B2B06D12000FFF7BDFF2000FFF7BAFF80
:1022B0000024200010BDC046000000200C4B10B5CB
:1022C0001B78082B10D00F2B0ED00120FFF7AAFF90
:1022D0000120FFF7A7FF0120FFF7A4FF0120FFF770
:1022E000A1FF0120FFF79EFF0020FFF79BFF10BD1D
:1022F00000000020F0B500240E00012585B00290FA
:1023000003920094029BA34202D8009805B0F0BD4E
:102310000F4F31003B6A009ADB0B2B40A3401A435E
:10232000029B0092013B29400195A34202D1039BED
:102330006B4001930C20FFF71FFF019B002B03D084
:1023400080239B01BB617B6176100134DAE7C046D4
:1023500000440041154B10B51B780400012B01D936
:10236000FFF7ACFF0020FFF75DFF0120FFF75AFFEA
:102370000120FFF757FF0020FFF754FF0020FFF771
:1023800051FF012221000A20FFF7B4FF5623FF333B
:10239000984207D10120FFF745FF0120FFF742FFD8
:1023A000002010BD01204042FBE7C0460000002095
:1023B000F7B50D4D0700EB780E202C790193FFF750
:1023C000C9FF061E0EDBFFF749FF019B611C994008
:1023D000E878AB783943C0180122FFF78BFFFFF78D
:1023E0005BFF6F713000FEBD000000201D4B10B57B
:1023F0001B78012B01D9FFF761FF0020FFF712FFC7
:102400000120FFF70FFF0120FFF70CFF0020FFF76F
:1024100009FF0020FFF706FF012204210A20FFF731
:1024200069FF0120FFF7FEFE0120FFF7FBFEFFF72B
:1024300015FF9A21802080220B4BFF314001920131
:10244000013958619A615A610029F9D10A000120C5
:10245000FFF750FF0400FFF71FFFFFF72FFF604259
:10246000604110BD0000002000440041F7B502218A
:10247000424A434B1170802212025A60802080220F
:102480008021C0019201490198609A609960986129
:1024900099615A61FFF712FFFFF7A8FF051E03D0ED
:1024A00001256D422800FEBD0E20FFF753FFFFF708
:1024B000D5FE2A0029004020FFF71CFFFFF7ECFEA5
:1024C0000C20FFF747FF08242E00FFF7C7FE00226D
:1024D00004201100FFF70EFF36090007013C0643F8
:1024E000FFF7DAFEFFF7EAFE002CEED1FF22254BC4
:1024F00071031A715A71490D6E29D1D1F10C5970BD
:102500009C7001202300019211402700E2B2944602
:10251000019A013417400200BA4091422ADA194F59
:10252000002B01D06346BB70FE7000267B78B3425F
:10253000B6DD082300240193FFF790FE002204205B
:102540001100FFF7D7FE240900070443FFF7A4FE9C
:10255000FFF7B4FE019B013B0193002BECD1FF225E
:10256000E30C1340842B07D16403640D6E2C03D15C
:102570003E7197E70300C8E70136D7E74F440041B3
:10258000004400410000002010B50120FFF7E2FEEA
:102590000400FFF763FE200010BD000037B5134BA9
:1025A00001905B790D001400002B18D10C20FFF76F
:1025B000D1FEFFF753FE019B01A99A0003231343A9
:1025C0000193002320201A00FFF7E2FD00236001A1
:1025D00002301A002900FFF7DBFD20003EBD00207D
:1025E000FFF7E6FE0028F9DBE0E7C0460000002028
:1025F00013B50024012201A920000194FFF7CEFFAA
:1026000001211F2000F0F2FE1F20210000F03AFF00
:1026100016BD10B50A000C0001000020FFF7BEFF38
:10262000844209D101211F2000F02CFF1F2000212E
:1026300000F028FF002010BD0A204042FBE710B543
:10264000FFF7A2FF10BD00000F2389B2064A184011
:102650000902064B01431043996058605A7852B200
:10266000002AFBDB7047C04600070B00000C00404F
:102670007047000010B5144C1449200000F026FAF1
:10268000200000F009F902210B2000F027FF0221B1
:102690000C2000F023FF00226B21200000F032F913
:1026A00000280ED00121200000F06EF91B2120002F
:1026B00000F06AF92000032100F00EF9200000F07C
:1026C00000F9FFF7D5FF10BD00030020A086010030
:1026D00010B5024800F0A1FB10BDC046BC000020B0
:1026E00013B51249124800F03BF81249124800F0A5
:1026F00037F81249124800F033F81249124800F036
:102700002FF81249124800F02BF8124C1249200001
:1027100000F026F801230193023300930D220B33BE
:1027200021000E4800F0F2FA13BDC0460008004236
:1027300000030020000C00420803002000100042AB
:10274000100300200014004218030020001800426B
:102750002003002028030020001C0042BC000020B1
:1027600000230371016070479446F0B59E1E721EEF
:1027700096416246056892072F6836063A4332430F
:102780002A60072505AC24780068A401294021436C
:1027900042680024022B00D05C03114321434160B6
:1027A000F0BD30B5C0250368AD031C6812052A4092
:1027B0002243C0240904A402214011431960036884
:1027C0005A6814435C6030BD0123026811680B43F2
:1027D000136003681A68D207FCD4DA69D207F9D407
:1027E00070470223026811680B4313600268D369C3
:1027F0009B07FCD470470268137E9B0702D40379C1
:10280000002BF9D1002303717047002203685A831B
:1028100070470368187E4007C00F70470368187E32
:10282000C0097047802302685B42117E0B43137618
:1028300070470368588B8007C00F704702230268F7
:10284000518B0B43538370470368187EC007C00F3A
:1028500070470368188DC0B2704703681A7ED207AC
:10286000FCD589B219850123037118007047012234
:1028700003689A757047012203681A75704701232F
:10288000026811680B43136003681A68D207FCD40E
:10289000DA69D207F9D470470223026811680B4342
:1028A00013600368DA699207FCD430215A8B8A439B
:1028B000110010220A435A830268D3695B07FCD4D3
:1028C00070470221026813688B4313600268D36962
:1028D0009B07FCD470470000032230B50368114009
:1028E0001C68074D5A6809042A40E4061143640F26
:1028F0005960052C03D10268D3695B07FCD430BD55
:10290000FFFFFCFF70B5056804006B8B9B069B0FF7
:10291000022B0DD06B8B00209B069B0F032B32D01C
:102920006B8B9B0704D56B8B9B069B0F012B2AD1CE
:102930006B6A49001143DB0AC9B2DB020B436B62CD
:102940002368002A13D11A7ED207FCD55B8B9B0625
:102950009B0F022B04D0490800222000FFF7D2FF72
:102960002368588B4007C30F012058400BE0187EA6
:102970008007C00FF4D11A7ED207F8D5C02259685B
:1029800092020A435A6070BD0368283319700268C6
:10299000107EC007C30F508B002B06D1C007C00F9D
:1029A00008D1538B9B07F3D570474007C30F012015
:1029B0005840F9E71800F7E70368214A30B5934219
:1029C0002FD0204A93422FD01F4A93422FD01F4A24
:1029D00093422FD01E4A93422FD01E4A93421FD1BA
:1029E0000E2319220121032599401B48C0240160B0
:1029F00099082B40AB40FC359D4089000918A40084
:102A00000859A843C0259D402B0003430B51802348
:102A1000DB011A43114B5A805A7852B2002AFBDB71
:102A200030BD09231422DDE70A231522DAE70B2340
:102A30001622D7E70C231722D4E70D231822D1E75B
:102A400000080042000C0042001000420014004246
:102A500000180042001C004200E100E0000C0040B1
:102A6000F8B504000F0016001D00FFF7A5FF2000B9
:102A7000FFF7AAFE1C21BB000B4071072268090C5E
:102A80000B431360842322689375012F1AD1102100
:102A9000012E00D008390C4B69431868C00002F0C1
:102AA00001F80722216802408B895203DB04DB0C0A
:102AB00013438B81226803049089DB0C400B400395
:102AC00018439081F8BDC04608000020F8B5040006
:102AD0000F00FFF771FF2000FFF7D1FE14222368DB
:102AE00079001A600C4B25681E68300001F0DAFF8F
:102AF0000A490400300001F0D5FF7D23FA21584334
:102B0000C90001F0CFFFFF23241AE868053C1C40F0
:102B100098430443EC60F8BD0800002040420F00D9
:102B20000120704710B50368014A1B6A984710BD21
:102B300013040000FC30006A704787239B00C01814
:102B4000C36880204000C01A70470300FC331A6A33
:102B5000002A03D0DB69C018007D70470120404285
:102B6000FBE710B504000069FFF72EFE22000023EA
:102B7000FC329361D361136287229200A4186360D0
:102B8000A360E36010BD872310B59B00C218D36813
:102B9000002BFCD10069FFF72EFE10BD0368002B4F
:102BA00002D162B6BFF36F8F7047F0200140303919
:102BB000484248417047F0231B01194080230620FA
:102BC0009B0099420AD00133FF330130994205D06E
:102BD000802302385B00994200D0002070470F200C
:102BE00001400020012903D00239481E8141481CC0
:102BF000704700008B23F0B5182685B002919B002A
:102C00000400C05C330008214343324D1700EB1829
:102C1000595600F063FC304B0821E05C330043431D
:102C2000EB18595600F05AFC2C4BE25C0393022A35
:102C300009D11133E05CFF2805D008214643AE19C5
:102C4000715600F04BFC8C26B600A05DFF2819D011
:102C5000012100F0CBFB1822A35D21495A43AB565A
:102C6000AD18DB0158188D21890060501D490122E3
:102C70005B188E218900635069688A408F21890022
:102C800062501A600122029B11002069FFF7E8FEE2
:102C900039002000FFF78FFF390005002000FFF703
:102CA0009EFF390006002000FFF77FFF33000090F1
:102CB000290020690122FFF757FD0B4B2069E25CD8
:102CC000039BE15CFFF76DFD2069FFF78AFD05B00E
:102CD000F0BDC0468C4E00002D0200002F02000007
:102CE00018440041144400412E020000802210B517
:102CF00004005200002101F0A2FF23000022FC3357
:102D00005A6020009A60DA6010BD0000F7B51D001F
:102D100008AB1B780400009309AB1B7816000193E5
:102D200000234360FA239B008360114B0F0008339C
:102D300003601430FFF7DAFF20002130FF30FFF787
:102D4000D5FF8B236A469B002761E654094B127816
:102D5000E554094B2000E2546A46084B1279E254CC
:102D60008C22313BFF3B9200A3541032A354FEBD92
:102D7000EC5100002D0200002E0200002F02000086
:102D8000F7B5EFF3108300930123019372B6802609
:102D90000200FF25019BFC327600013B5C1C0FD03A
:102DA000D4685F1EB44209D0546801555468013498
:102DB0002C405460D4680134D460EEE73B00EDE76A
:102DC00068460193FFF7EAFEF7BD13B5EFF31083F2
:102DD00000930123019372B6019B5A1E0192002BAE
:102DE00015D00300FC33DA68002A0DD09A68845CA1
:102DF0009A680132D2B29A60DA68013ADA606846BB
:102E0000FFF7CCFE200016BD01246442F7E7012441
:102E10006846FFF7C3FE6442F4E710B5040000699A
:102E2000FFF707FD002805D02069FFF712FD206994
:102E3000FFF704FD2069FFF7ECFC00281BD0206998
:102E4000FFF707FD010020001430FFF799FF8C23E6
:102E50009B00E35CFF2B0ED02300FC331A6A802317
:102E60005B009B1A092B06DC8D238F229B009200AE
:102E7000E358A2581A602069FFF7E6FC00280ED03C
:102E800087239B00E318DB68002B14D0200021303F
:102E9000FF30FFF79AFFC1B22069FFF7DEFC20691F
:102EA000FFF7BCFC002805D02069FFF7BBFC2069B8
:102EB000FFF7ABFC10BD2069FFF7DDFCEFE700007A
:102EC000F8B5040000690D00FFF7BEFC87239B00E6
:102ED000E618002802D0F368002B34D001278022A6
:102EE000F3685200934223D1EFF310833B4210D199
:102EF000174B5B68DB05DB0DF1D0103B5BB2002BA1
:102F000010DAF13A1340083B9B08124A9B009B18C9
:102F10001B682069FFF798FC0028E0D02000FFF72D
:102F20007CFFDCE79B08C0330B4A9B009B58F0E713
:102F300020002130FF302900FFF722FF2069FFF732
:102F400096FC0120F8BD29002069FFF786FCF8E710
:102F500000ED00E01CED00E000E100E010B5040031
:102F60001430FFF732FF8C239B00E35CFF2B0ED065
:102F70002300FC331A6A80235B009B1A0A2B06DDB0
:102F80008E238F229B009200E358A2581A6010BD36
:102F9000F7B506000D000C008B180193019B671B11
:102FA0009C4207D0336821781B6830009847013471
:102FB0000028F3D13800FEBDFEE70000034B10B53A
:102FC0001B68002B00D0984710BDC046300300207E
:102FD00070B50F490F4CA14204D100F0ADF800F0DC
:102FE0008BF8FEE70C4D00238D42F6D0CA18E81886
:102FF000A24205D3094B8242EFD00949002204E0E6
:10300000006804331060F1E704C38B42FCD3E4E7AB
:1030100000000020A0000020E4520000A0000020DA
:103020007009002010B500F064F8002801D100F00C
:1030300055F810BD014B18607047C04630030020A2
:10304000014B18687047C04634030020F7B5134899
:10305000012284461249134C8E68636805689B0EF2
:103060001340019288686268019F920E3A40674659
:103070003F6893420ED1BD420CD186420AD35B1900
:10308000FA254868AD00861B07486B437043000D66
:10309000C018FEBD3D0013000600E3E73403002026
:1030A00010E000E000ED00E05555000070B5041E92
:1030B00010D0FFF7CBFF050000F01AF8FFF7C6FFAE
:1030C000054B401B9842F7D9FA23013C9B00ED18B1
:1030D000002CF3D170BDC046E703000010B5034AD1
:1030E00013680133136000F06BFA10BD3403002045
:1030F000704700207047000010B500F0CDF801F0D7
:103100005DFDFFF7B7FA0120FFF7D0FF084C200064
:1031100001F094F9200000F0D7FBFFF727F8FFF744
:1031200029F8044B002BFAD000E000BFF7E7C046B7
:1031300060030020000000001E2270B54648474989
:10314000436893431C3A1343436008238C69234329
:103150008B61434C434B9C829C8A14439C82DC6869
:103160001442FCD00124404A14701578254203D043
:1031700055786DB2002DF8DB01249460547864B268
:10318000002CFBDB394C5460547864B2002CFBDB20
:103190008224E4015480547864B2002CFBDB0224C6
:1031A0009C840E34DD682542FCD0314CDC62102456
:1031B000DD682542FCD09D8C2E4C2C439C84102431
:1031C000DD682542FCD002249D8C80262C439C8403
:1031D0004024DD683542FCD0DD682542F9D010245A
:1031E000DD682542FCD000249460547864B2002C41
:1031F000FBDB214C5460547864B2002CFBDB1C6A6E
:103200001E4D2C4080251C621C6AAC431C620323AB
:1032100093601B4B536053785BB2002BFBDB0023A6
:10322000FF240B72174A4B728B72CB72164B1A60CB
:10323000164B174A1B6811689A065B01C90E23409A
:10324000520F12020B431343124A13858023426824
:103250001343436070BDC04600400041000400407D
:103260000C06000000080040000C004001050100B1
:10327000B905FF7D040A000000070300FFFCFFFF03
:1032800003060100006CDC020800002024608000BE
:103290002060800000400042FA21314B10B51868D0
:1032A000890001F0FFFB2F4B0138984256D82E4978
:1032B0002E4A4860C020136A00061B021B0A034303
:1032C0001362002407238C600B608021136A0906B7
:1032D0001B021B0A0B431362FC22254B196A0A438B
:1032E0001A62FC22196A92010A431A62A022196A20
:1032F000D2020A431A62E0B20021013400F076F8EB
:103300000F2CF8D11B4B1C005A7852B2002AFBDB61
:10331000194A5A80194B1A00597EC9090129FBD054
:10332000E421C90099803F21D970537EDB09012B2C
:10333000FBD0C02300205B011361907000F024F8E3
:1033400063785BB2002BFBDB0D4B0E4A6380D379B5
:10335000DB09012BFBD04123537010BDFEE7C046B3
:1033600008000020FFFFFF0010E000E000ED00E09B
:1033700000040040000C00401E40000000400042DD
:103380002140000000480042164A00B51300517E5B
:10339000C9090129FBD00138042816D81969124A35
:1033A0000A400F211A615A788A4301F071FB030821
:1033B000060B0300110001220A435A7000BD1100E0
:1033C0000322F9E711000222F6E7F02311691B0539
:1033D0000B430F21136153788B43190002230B43D6
:1033E0005370EBE700400042FFFFFFF0182330B5B9
:1033F0001D00040045430820204A55192856013075
:1034000014D0032912D808006343D156D31801F011
:103410003FFB02280E1B5868CB010221184A9B185B
:103420001A1840321170012282405A6030BD58682B
:10343000CB010621124A9B181A1840321170012242
:1034400082405A609A61F1E75868CB0106210C4A24
:103450009B181A1840321170012282405A605A613A
:10346000E4E75868CB010221054A9B181A1840323C
:103470001170012282409A60D8E7C0468C4E00004D
:10348000004400411823F0B508245843114A13188A
:103490001C5701341BD0012635005F688356BD40A0
:1034A0000D4ADB019A18906805420BD10C00601E92
:1034B0008441D2194032107834400336A400B0431E
:1034C00020431070044A9B18002901D15D61F0BDB2
:1034D0009D61FCE78C4E00000044004118224243ED
:1034E000F8B52C4E0300B218127A52B21400013211
:1034F0000ED0481C00240C280AD801F0C9FA072075
:10350000202020202020200B0B0B0B0001246442E4
:103510002000F8BD092905D10021D8B2FFF766FFC8
:103520000024F5E70A2902D1D8B20839F6E70024C9
:103530000B29EDD1D8B20A39FFF758FFE8E7182078
:103540004343F2185568F3562C00134ADB016E080A
:1035500017389B18C9B204409E19002C0DD00F24B7
:1035600030363278090122401143C9B25B193170FB
:1035700040331A7810431870D2E732000F273032E8
:1035800016785B19BE433143117040331A781043EB
:103590001870BDE78C4E00000044004110B50400D7
:1035A000FFF74DF8014B1C6010BDC0460C00002019
:1035B0000122024B52421A607047C0460C000020A4
:1035C000164A10B51368591C26D0013B1360002B16
:1035D00022D172B6124B134A0433934213D9124AC2
:1035E00001211000147D0C42FCD02021148BFF31EE
:1035F0009B085B0021431183D3610C4B1380012393
:10360000027D1A42FCD0BFF34F8F094B094ADA60A2
:10361000BFF34F8FC046FDE710BDC0460C00002031
:1036200000200000030200000040004102A5FFFF4F
:1036300000ED00E00400FA05704710B5040001F049
:1036400033F8200010BD0000F0B5822919D1C3B2B3
:10365000294D5A01AA189169284C80010C40C021BB
:103660008905214391612649083340187021506132
:1036700028685B011A5C8A43110030220A431A54FD
:10368000F0BD0029FCD1C026C1B21B4C4B01E31890
:103690009A681A4DB6052A4032439A60194A800149
:1036A00082185A600A000727246808325201115D07
:1036B000B9430F000121394311559F6910493D401D
:1036C00040182E439E6158617020115D81430800AF
:1036D00010210143115599680B48A2180840802118
:1036E0004903014399609968890B890399604023D4
:1036F00011790B431371C3E718080020FFFFFF8FF8
:103700008C0300204C050020FF3F00F0EFF31083F6
:1037100003600123436072B6704773B5836D040084
:10372000002B1BD10600A83635786846FFF7EEFF60
:10373000019BEDB2013B02D33578EDB2FAE7684662
:103740000193FFF72BFA002D01D1002076BD230055
:10375000A4331868A0342368C01AF7E76846FFF757
:10376000D5FF22000025019BF432013B02D31578DE
:10377000EDB2FAE768460193FFF710FA002DE4D0A6
:103780002300F0331868EC34E5E7000010B5436D12
:103790004468DBB25A01A21891680948083308400E
:1037A000802149030143916091685B01890B890382
:1037B00091602268D318402219790A431A7110BD0A
:1037C000FF3F00F0F7B5436D4268DBB2190004001B
:1037D0000831106849014118C979C90711D55B0141
:1037E000D21893689B049B0C0CD12000FFF7CEFFEE
:1037F00063681A68636DDBB208335B01D3187F22FC
:10380000DA71F7BDE16D002923D12100A4310B60ED
:1038100023000125AC33E56568465360FFF776FF6A
:10382000260020002100019BA836013BF430F53131
:103830005A1C33D0357002785F1ED2B20A700A78F3
:10384000002A04D120000193FFF7A0FFE8E73B0026
:10385000EEE72100F0310B600023E36523006033C5
:1038600053606846FFF752FF012526002000210023
:10387000019BF436013BA830F5315A1C0ED035704F
:1038800002785F1ED2B20A700A78002A04D12000A2
:103890000193FFF77BFFE8E73B00EEE76846019303
:1038A000FFF77CF9A4E737B56B46DC1D00230D005C
:1038B000237000F0E3FE210000F06EFE2B68181864
:1038C000286020783EBD00000078002810D001213B
:1038D000084B1B681A898A431A810822198B0A43EC
:1038E0001A830422198B0A431A830022024B1A609E
:1038F0007047C046180800201008002010B50F4A75
:1039000093699B0B9B03936113680222FF331A7226
:103910009879823A02439A711A7A9207FCD57F24E9
:10392000074A2140937A0800A343190080230143EA
:103930009172917A5B420B43937210BD180800207C
:103940000050004110B50C0000F098FE210000F07E
:1039500056FE002804D1034A93699B0B9B03936195
:1039600010BDC04618080020F8B50D00832A19D1F3
:10397000CBB23B4C5A01A21891693A48AD010840BC
:10398000C021890501439161374920686D18702174
:10399000083355615B011A5C8A43110040220A43D7
:1039A0001A54F8BD022A55D1304A8B009858002885
:1039B00002D003685B699847F82000F071FE0400AC
:1039C000274E2B4B4660036040220021083001F057
:1039D00036F922000023A032A3646565E364236501
:1039E000A365E3655360D3641372136013654C32AF
:1039F00013725372FF222B0013405901711888680B
:103A0000184F08330740C02080053843886030686D
:103A100007265B01195CAD00B1430E000321314361
:103A200019542300616D60681140490141186033E9
:103A30004B60616D63680A401B6852019B1801224C
:103A4000FF33997A20000A439A72FFF79FFE074BD3
:103A50005C51A6E711002800FFF7F6FDA1E7C0467C
:103A600018080020FFFFFF8F8C0300206403002054
:103A70002852000070B505000124064BA200D25860
:103A8000002A06D0210028000134FFF76DFF0A2C20
:103A9000F3D170BD380300200B4BCAB20B4889012B
:103AA000C9185301C318596199690832890B8903F0
:103AB0009961036852019A180223D3715179823BAC
:103AC0000B4353717047C0468C0300201808002038
:103AD000084B8A00D05810B5002803D003689B68B3
:103AE000984710BDC9B2044B490159188868800431
:103AF000800CF6E7640300201808002010B50C00C5
:103B0000FFF7E6FF00280CD0064BE4B21B68083430
:103B100064011C19802362795B42134363710223A1
:103B2000E37110BD18080020F0B51C002A4B85B0C9
:103B30001B6807000D000292002B4AD0274B8A0019
:103B4000D058002808D0036822005B680299984783
:103B50000400200005B0F0BD3800FFF7B9FF844233
:103B600004D929003800FFF7B3FF04000121EBB2AC
:103B70001B4E03935B010193F21893689B0B9B030D
:103B80009360019A336802989B18FF335A7A0A436C
:103B90005A72144BA901C918220001F047F8002CF1
:103BA000D7D029003800FFF793FF0028D1D140215A
:103BB000039B326808335B01D318187901431971EC
:103BC0000121D971019BD318FF339A7A0A439A7263
:103BD000BFE701246442BCE7100800206403002012
:103BE000180800204C05002013B56B46DC1D220090
:103BF0000123FFF799FF012801D1207816BD01208C
:103C00004042FBE770B5CBB2124A13485C01890110
:103C10008918021951609168104D08330D408021B8
:103C200049032943402591609168890B890391607C
:103C300001685A018A1816793543157195796D0610
:103C4000FCD55B01C918CB79DB07FCD5001980686E
:103C5000C0B270BD4C05002018080020FF3F00F0E6
:103C600070B50D0000211400FFF7CCFFA04200D971
:103C7000200000230349A34203D0CA5CEA54013365
:103C8000F9E770BD4C050020F0B51E003A4B85B039
:103C90001B680F000192002B35D08023DB019E4270
:103CA00031D80025354B8A01D3180293002E2CD031
:103CB000334B1B680393FF233B401C0000930834E5
:103CC000039B64011C19A379DB0921D02D4B2E49DC
:103CD000186800F0E7FE2D4B1721584300F0E2FE74
:103CE0002B4BE279920713D4DA5D002A01D1013817
:103CF000F7D20122DA55009B5A01214B9B189A6991
:103D0000920B92039A6101256D42280005B0F0BD27
:103D100000221F4B3400DA553F2E09D9009B402466
:103D20005A01174B9B188022996912060A439A611F
:103D300022000199029800F079FF009BA1045A012A
:103D40000F4B890C9B18029A2D195A619A69361BE0
:103D5000920B92030A439A61009B039A08335B011A
:103D6000D3180222DA715979823A0A435A71019BB7
:103D70001B1901939AE7C046100800208C0300200D
:103D8000180800200800002040420F0070110100B8
:103D90008103002070B50D001C000D4BAE01F6181C
:103DA00011003000220000F041FFEDB209496D0121
:103DB0004D196E61AB69084A20001340AB61AB69D5
:103DC000A2049B0B920C9B031343AB6170BDC046D6
:103DD0008C03002018080020FF3F00F0F7B5104BBF
:103DE00001901B780F001500002B0CD10D4B160015
:103DF0001C78002C09D00C4E0C483488201864190B
:103E000000F014FF34802800FEBD002EFBD03A19CC
:103E1000330000210198FFF7BDFF2418361AF4E79C
:103E20000C0700200D0800200E0800200D070020C0
:103E3000F8B50F0016000024012A26D9100000F062
:103E4000E1FE0500380000F0BDFF0323022201302F
:103E5000400028706B7096420DD9397800290AD03D
:103E6000531CDBB20137A9549E4203D00232EC54FA
:103E7000D2B2F0E7320029000548FFF7AFFF441E39
:103E8000A041C4B2280000F0C7FE2000F8BDC04623
:103E900060030020F0B50024012685B0184B0F0008
:103EA00069461E7005000094FFF7FDFC154B01A943
:103EB0000B806A3BFF3BCB715A330B72009B8C71BA
:103EC00009334B800E4B4E7108711C703A00092F5C
:103ED0000FD00D4F09223E700C4E28000094348004
:103EE000FFF77CFF69462800FFF7DDFC32880849B0
:103EF0003C702800FFF772FF012005B0F0BDC046FE
:103F00000C070020090200000D0800200E08002008
:103F10000D07002070B5CE7892B005000C00022E7F
:103F20000BD18B79C9792C4809021943FFF7B2FFED
:103F3000411E8841C0B212B070BD00F09FFB21004D
:103F400000F03EFB002803D0C117081AC00FF2E7AB
:103F5000012E0ED1E279A37912021A431F49112AC8
:103F600013D8D2B2002A10D02800FFF737FF012063
:103F7000E1E7032EDFD1A378002B08D1E279A37902
:103F800012021A431649032AEBD90A78ECE7022BEE
:103F900008D1E279A379120212491A432800FFF7E7
:103FA00047FFC8E7012B05D1E279A37912021A4332
:103FB0000D49F3E7032BBED14122010001A800F017
:103FC0003EFE00F05BFB01A900F00AFBE279A37959
:103FD00012021A4301A9E1E7600300206C520000BD
:103FE0005C5200004452000060520000CBB2044911
:103FF0005B01C9188B699B0B9B038B617047C046A3
:104000001808002037B5050048780C000B2810D898
:1040100000F03EFD061B0F2B0F404561494C5A5DD9
:10402000097801AA002906D1022311802800FFF790
:10403000B1FE01203EBD00231380284B1B78012BCD
:1040400000D1137002230021F0E78A780023012AAF
:1040500003D101AA1380224BF0E7204A1370214AB2
:1040600093699B0B9B039361E3E78C78012C06D14A
:1040700000211B4B01AA1C7011702300D6E7012000
:10408000002CD7D1154B174A187093699B0B9B03D3
:104090009361CFE789782800FFF730FCC9E7280053
:1040A000FFF738FFC6E701230F4ACCE70B78002063
:1040B000DB06BFD12800FFF7DDFCA2780A4B0B48D6
:1040C0001A6000F0C3FCCAE70123094ABBE78A78FB
:1040D000074B1A60C3E70020ACE7C046800300200E
:1040E0008803002018080020100800202C09002058
:1040F000140800203A4BF7B51E780500002E5FD15A
:10410000384C23689A8B12070DD5082231009A8308
:104110003000FFF799FA10222368FF33997A0A4397
:104120009A72314B1E6023689A8B520701D5042284
:104130009A83FF331A7A920603D52022597A0A43CA
:104140005A721A7AD20623D569460800274AC0CA8D
:10415000C0C0A268920B9203A26040225879024329
:104160005A7160230A7828001A422AD1FFF74AFFC1
:104170002368FF33002827D08022997952420A43CE
:104180009A711A7A520603D54022597A0A435A7212
:104190007F2601252368FF331E722F00236808370E
:1041A0007F01DB19DB79002B07D0114BAA00D05817
:1041B00000280DD003681B6898470135082DECD105
:1041C000F7BDFFF7BFFBD3E720210A4A9171D8E77B
:1041D0002900094800F010FC2368DF19FE71ECE7A4
:1041E0000D08002018080020100800204C050020B1
:1041F00064030020FF5000412C09002010B5024844
:10420000FFF778FF10BDC0466003002080235B00ED
:104210000380002343600733037270478300014823
:10422000C018704738030020836C402B09D03F2210
:10423000036CC154036C013313400364836C01337A
:1042400083647047F7B505006846FFF75FFA0026FC
:104250004022019B013B02D32E6D961BFAE7684674
:104260000193FEF79BFCAB6D6846002B4FD1FFF727
:104270004DFA2900019BA831013B5A1C0CD00C7847
:104280005A1EE4B2002C05D168460193FEF786FC65
:104290002000FEBD1300F0E7684601930024FEF7FE
:1042A0007DFC2A002900A0321368A431B4420ED04C
:1042B000086898420BD92800591CEB18116060332C
:1042C00019780830C9B2FFF7AFFF0134E9E7096890
:1042D0009942DDD1002313600133AB656846FFF7D7
:1042E00015FA2F002A000021019BA837013BF53267
:1042F000581CC9D0397010785E1E002805D0117086
:1043000028000193FFF742FAEBE73300F0E7FFF7ED
:10431000FDF92900019BF431013B5A1C06D00C78B1
:104320005A1EE4B2002CAFD01300F6E768460193A2
:104330000024FEF733FC2A002900EC321368F03128
:10434000B44202D0086898421DD8096899429FD1AA
:10435000002368461360AB65FFF7D8F92F002A00E9
:104360000021019BF437013BF532581C00D18BE74B
:10437000397010785E1E002811D01170280001934A
:10438000FFF704FAEAE72800591CEB181160AC3378
:1043900019780830C9B2FFF747FF0134CBE7330083
:1043A000E3E710B50400FFF74DFF206D10BD10B519
:1043B0000400FFF747FF236D002B03D0E36CE418E4
:1043C000207A10BD01204042FBE7F7B517000E0030
:1043D0000400FFF737FF6846FFF798F93F220025F2
:1043E0009446019B013B5A1C19D0BD4215D2226D47
:1043F000002A12D00121226D4942002A0AD06046CB
:10440000E26CA218117AE26C01320240E264226D81
:10441000013A226571550135E7E7013BE3E768465C
:104420000193FEF7BBFB2800FEBD0000014B024AD2
:104430001A60704718080020005000412023F7B58B
:10444000474A0500D1690F200B43D361012245493A
:104450000B7813430B70444B197881431970062174
:104460001C782143197041490C7822430A701A784C
:1044700002401A70602219780A431A703C4B3D4A78
:104480005A805F78FF09FCD13B48FEF7D3FD01233A
:104490003A4C3B4E2268300011780B431370802257
:1044A0003900520000F0CBFB22689378DB07FCD484
:1044B00056621F26334B1B68590B980C9B013140E9
:1044C00030405B0FB14200D105211F2800D10238D6
:1044D000072B00D1043B31408901178D01912A49F6
:1044E00030400F40019939431185118D0700B143C8
:1044F000080038431085118D1803244B7F260B408C
:1045000003430C2013850823D17881430B430321F7
:10451000D3702268D3788B4301390B43D370226860
:1045200013783340137004232268167833431370D2
:104530002268C1241389A4008343154813810359B9
:104540001B021B0A0351802303601378114819438F
:10455000012311702B70002100F0E8F8F7BDC04670
:1045600000040040584400413C440041594400418B
:10457000000C004006400000FD410000180800202B
:104580001C080020246080003FF8FFFFFF8FFFFF22
:1045900000E100E02C09002070B50E000025446801
:1045A000002C0BD0236831005B682000984700285E
:1045B00002DB2D18E468F3E701256D42280070BD89
:1045C00070B50D004468002C08D0236829009B6852
:1045D00020009847002802D1E468F4E7200070BD6D
:1045E00070B50D004468002C07D023682900200016
:1045F000DB689847E4682D18F5E72C7070BD70B53E
:104600000D004468002C08D0236829001B68200096
:104610009847002802D1E468F4E7200070BDF8B59F
:1046200042788B790D00017A9B18040000208B42A0
:1046300022DC6368834219D16560002623786A71A1
:10464000EA792B719B182370AB79B34213D9AB680D
:10465000B7006078DF19FFF7E1FD3B6801360360C2
:104660006378F6B201336370EEE70B00D968002976
:10467000FBD1DD60E1E70120F8BD000070B5012647
:10468000054D064C2B68334203D12000FFF7BEFDD9
:104690002E60200070BDC0461C09002020090020AB
:1046A00010B500F0AFFA10BD10B500F0B5FA10BDAE
:1046B0000020704770B50F26CB1D01390200324033
:1046C000D5B22C0000093034092A00DD07341C70F3
:1046D000013B8B42F2D170BD10B50C000B4B18683A
:1046E000FFF7E8FF21000A4B08311868FFF7E2FFE7
:1046F0002100084B10311868FFF7DCFF2100064B42
:1047000018311868FFF7D6FF202010BD0CA08000DC
:1047100040A0800044A0800048A0800008B4024B64
:104720009C46103808BC6047D94600007047704767
:104730003F20704713B56B460268D9710733546840
:1047400019000122A04716BD70B50A260B7892B059
:104750006E44023305000B703C220021300000F053
:104760006EFA394801AC069038482421079006209B
:1047700020776846364AA1742281364A364BA28198
:10478000FD3AFF3A8018C177684623390630C17771
:1047900068460730C17702A8C1770720F277032661
:1047A00008316944C87703A9CE7710212B366E44AF
:1047B0003170092621851F3169440E700CA9053E10
:1047C0000E7033212380022369440B7006360DA935
:1047D0000E7022493536A1863B216E44307010A8F8
:1047E0006274E27702703D3269446A440B70137060
:1047F00040210022E37023716371A37341336B4442
:10480000218719705A702B7DC039A370A37263770A
:104810000133DBB2A3776A7D0B200D00684415439A
:10482000C5773120684403703A23501C6B441870DC
:10483000412302320A436B441A7021004222084885
:10484000FFF7CCFA12B070BD100104240206052453
:104850000904000001020000080B00000705000029
:104860006003002008B4024B9C46103808BC604727
:104870004947000070B5027D0B790C0000259A4273
:104880000BD10B784E78A12B09D1212E05D107220F
:104890001B491C48FFF7A2FA0135280070BD212BE7
:1048A000FBD1202E22D1072215491648FFF7D8F94F
:1048B0009622134BD200196891421DD1DB79DB0798
:1048C0001AD4FA20FEF76AFE00210E48FFF78EFB8D
:1048D0000125232EE1D1E378A2781B0213430A4A73
:1048E000002108481360FFF781FBD6E7222EEFD1A5
:1048F0008A78034BDA71DBE7FEF75AFEE4E7C0463D
:1049000014000020600300201000002008B4024BB7
:104910009C46103808BC60477548000010B5082256
:104920000021024800F08BF910BDC04614000020A1
:1049300010B5417D006A0131FFF7CAF8034B1B68CF
:1049400001335A1E9341181810BDC0461C000020A8
:1049500010B5417D006A0231FFF7D0F810BD10B5E7
:10496000417D006A0231FFF797F810BD70B50D0068
:10497000417D0400130002312A00006AFFF784F928
:10498000002801D10123636070BD000010B5054C03
:1049900023685A1C04D103685B69984703002060B0
:1049A000180010BD1C000020074A0300106810B555
:1049B000411C03D001235B42136010BD597D186A6E
:1049C0000131FFF711F9F8E71C00002010B5FEF7E0
:1049D00037FBF423FF330024984207D9044B0A2005
:1049E000DC79631E9C41E4B2FEF760FB200010BD41
:1049F000140000200020704770470000FA239B003D
:104A000010B583600F4B0022C382030028338361FB
:104A10000D4B04004260C26118005033236108301E
:104A2000631D21622060DA778323A362813BE36206
:104A300080332363FFF722FE21001031FFF7EFFDE3
:104A4000200010BD0302000080520000022110B5BA
:104A5000094B1A68437D5B01D318FF339C7A2143CD
:104A60009972437D0133DBB25B01D3180122FF331E
:104A7000997A0A439A7210BD1808002010B50249AD
:104A80000248FFF7BBFF10BD600300202C09002087
:104A900002B4714649084900095C49008E4402BCD1
:104AA0007047C046002243088B4274D303098B42EF
:104AB0005FD3030A8B4244D3030B8B4228D3030CEE
:104AC0008B420DD3FF22090212BA030C8B4202D390
:104AD0001212090265D0030B8B4219D300E0090AB8
:104AE000C30B8B4201D3CB03C01A5241830B8B42C1
:104AF00001D38B03C01A5241430B8B4201D34B03AA
:104B0000C01A5241030B8B4201D30B03C01A52410E
:104B1000C30A8B4201D3CB02C01A5241830A8B4293
:104B200001D38B02C01A5241430A8B4201D34B027C
:104B3000C01A5241030A8B4201D30B02C01A5241E0
:104B4000CDD2C3098B4201D3CB01C01A5241830994
:104B50008B4201D38B01C01A524143098B4201D3CE
:104B60004B01C01A524103098B4201D30B01C01AF9
:104B70005241C3088B4201D3CB00C01A5241830873
:104B80008B4201D38B00C01A524143088B4201D3A0
:104B90004B00C01A5241411A00D201465241104600
:104BA0007047FFE701B5002000F006F802BDC046DF
:104BB0000029F7D076E770477047C04670B50026E9
:104BC0000C4D0D4C641BA410A64209D1002600F028
:104BD00011F90A4D0A4C641BA410A64205D170BD00
:104BE000B300EB5898470136EEE7B300EB5898470F
:104BF0000136F2E7840000208400002084000020B9
:104C00009400002010B5034B0100186800F06AF80A
:104C100010BDC0462000002010B5034B01001868ED
:104C200000F016F810BDC04620000020002310B58B
:104C30009A4200D110BDCC5CC4540133F8E70300A4
:104C40001218934200D1704719700133F9E7000040
:104C500070B50500002910D00C1F2368002B00DA66
:104C6000E418280000F0B5F81D4A1368002B05D1A0
:104C700063601460280000F0ADF870BDA34209D94C
:104C8000216860188342F3D118685B68411821607D
:104C9000EEE713005A68002A01D0A242F9D9196838
:104CA0005818A0420BD12068091858181960824280
:104CB000E0D110685268411819605A60DAE7A042E2
:104CC00002D90C232B60D5E721686018824203D1FA
:104CD000106852684118216062605C60CAE7C04693
:104CE00060090020032370B5CD1C9D4308350600E4
:104CF0000C2D1ED20C25A9421DD8300000F069F8F9
:104D0000254A14682100002919D1244C2368002B5E
:104D100003D1300000F044F820602900300000F09A
:104D20003FF8431C2BD10C233000336000F052F8C5
:104D300003E0002DDFDA0C233360002070BD0B6828
:104D40005B1B19D40B2B03D90B60CC18256003E037
:104D50004B688C420DD11360300000F03BF820000E
:104D600007220B30231D9043C31AE7D05A42E2506A
:104D7000E4E763600C00EFE70C004968C3E7032336
:104D8000C41C9C43A042E1D0211A300000F008F876
:104D9000431CDBD1C7E7C04660090020640900203E
:104DA000002370B5064C05000800236000F014F8DD
:104DB000431C03D12368002B00D02B6070BDC0467C
:104DC0006C0900200023C25C0133002AFBD1581E6D
:104DD0007047704770470000044A1368002B00D1E9
:104DE000034B1818106018007047C046680900206F
:104DF00070090020F8B5C046F8BC08BC9E46704754
:104E0000F8B5C046F8BC08BC9E46704701000000DB
:104E10000000000001000000090000000300000085
:104E20000000000004000000050000000400000075
:104E30000500000006000000080000000600000059
:104E4000070000000400000008000000010000004E
:104E5000090000000A000000020000000B00000032
:104E60000C0000000B0000000C0000000D00000012
:104E70000F0000000D0000000E0000000B000000FD
:104E80000F00000001000000090000000000000009
:104E900016000000080000001C000000FF000004D5
:104EA00000040600000000001700000008000000D9
:104EB0001C000000FF0001040104070000000000C6
:104EC0000A000000080000001C00000012000001A1
:104ED0000001FF00000000000B00000008000000BF
:104EE0001C000000130001010101FF00010000008F
:104EF0000A000000080000001C000000FF00000580
:104F000000050A00010000000B000000080000007E
:104F10001C000000FF00010501050B00000000005F
:104F200014000000080000002C000000FF00020038
:104F3000020004000000000015000000080000004E
:104F40002C000000FF00030003000500000000002B
:104F500010000000020000001C000000FF00000222
:104F6000000200000000000011000000020000002C
:104F700004000000FF00FFFFFFFF01000000000031
:104F800013000000020000001C000000FF000103ED
:104F90000103FF0000000000080000000200000004
:104FA000040000001000FFFFFFFF100000000000E1
:104FB0000900000002000000040000001100FFFFD3
:104FC000FFFFFF00010000001700000003000000C9
:104FD00004000000FF00FFFFFFFFFF0001000000D2
:104FE000160000000300000004000000FF00FFFFA7
:104FF000FFFFFF00000000000200000001000000B1
:10500000060000000000FFFFFFFFFF00010000009E
:105010000200000001000000040000000A00FFFF81
:10502000FFFF02000100000003000000010000007B
:10503000040000000B00FFFFFFFF03000000000062
:1050400004000000010000001C000000040000003B
:105050000000FF000000000005000000010000004B
:105060001C000000050001000100FF00000000001E
:105070000600000001000000040000000600FFFF21
:10508000FFFFFF000000000007000000010000001B
:10509000040000000700FFFFFFFFFF00000000000A
:1050A000180000000600000000000000FF00FFFFE5
:1050B000FFFFFF00000000001900000006000000D4
:1050C00000000000FF00FFFFFFFFFF0000000000E6
:1050D000120000000800000004000000FF00FFFFB5
:1050E000FFFFFF00000000000300000008000000B8
:1050F00004000000FF00FFFFFFFFFF0000000000B2
:105100000C0000000200000004000000FF00FFFF90
:10511000FFFFFF00000000000D0000000200000083
:1051200004000000FF00FFFFFFFFFF000000000081
:105130000E0000000800000004000000FF00FFFF58
:10514000FFFFFF00000000000F0000000200000051
:1051500004000000FF00FFFFFFFFFF000000000051
:105160001B0000000800000000000000FF00FFFF1F
:10517000FFFFFF00000000001C000000080000000E
:1051800004000000FF00FFFFFFFFFF000100000020
:10519000080000000800000004000000FF00FFFFFE
:1051A000FFFFFF00010000000900000008000000F0
:1051B0001C000000030001040104090000000000BD
:1051C000000000000800000000000000FF00FFFFDA
:1051D000FFFFFF00000000000100000008000000C9
:1051E00000000000FF00FFFFFFFFFF0000000000C5
:1051F00000000000C12E0000912F00003B2B00009A
:10520000872B0000352B00005D2F00004B2B00008A
:10521000252B0000F52B0000632B0000212B000044
:105220000000000000000000C5370000CB43000074
:10523000A3430000AF430000393600003B360000B6
:105240001B37000041726475696E6F204D4B522010
:105250005669646F72203430303000000403090452
:1052600041726475696E6F204C4C4300120100025C
:10527000EF020140412356800001010203010000BA
:105280000000000000000000354700006D490000EC
:10529000314700005149000031490000A949000090
:1052A0008D4900002D4700002F4700001D490000D8
:1052B000CD4900005F49000049470000B1460000A9
:1052C00075480000D9460000F0FFFFFF0000000015
:1052D0000D49000065480000F54900001D47000029
:0452E00000000000CA
:1052E40000000000FF00000040420F00FFFFFFFF2E
:1052F400FFFFFFFF00C2010000000800FFFFFFFFE7
:105304002400002000000000000000000000000055
:105314000000000000000000000000000000000089
:105324000000000000000000000000000000000079
:105334000000000000000000000000000000000069
:105344000000000000000000000000000000000059
:105354000000000000000000000000000000000049
:1053640000000000DD200000E12600002D440000C4
:105374007D4A0000B520000000000000000000008D
:020000024000BC
:10000000FFFFFFFFFFFFFFFFFFFFFFFFFFFFFFFF00
:10001000FFFFFFFFFFFFFFFFFFFFFFFFFFFFFFFFF0
:10002000FFFFFFFFFFFFFFFFFFFFFFFF00000000DC
:1000300000000800A96F1F00207777772E7379736F
:1000400074656D65732D656D626172717565732E72
:100050006672200000FFF00F0100000001000000A8
:10006000FFFFFFFFFFFFFFFFFFFFFFFFFFFFFFFFA0
:10007000FFFFFFFFFFFFFFFFFFFFFFFFFFFFFFFF90
:10008000FFFFFFFFFFFFFFFFFFFFFFFF000000007C
:100090000000000000000000000000000000000060
:1000A0000000000000000000000000000000000050
:1000B0000000000000000000000000000000000040
:1000C0000000000000000000000000000000000030
:1010200056EFEFEFEFEFEFCFDF5F9FDF5F0F9F9F99
:101030003F3FBF3F3F5FBF3F5F7FDFFF3FBF1F1FA0
:101040003F3F1F1F3F1F1F5F5F4AA6FFFFFFFFFFBE
:10105000FFFFFFFFFFFFFFFFFFFFFFFFFFFFFFFFA0
:10106000FFFFFFFFFFFFFFFFFFFFFFFFFFFFFFFF90
:10107000FFFFFFFFFFFFFFFFFFFFFFFFFFFFFFFF80
:10108000FFFFFFFFFFFFFFFFFFFFFFFFFFFFFFFF70
:10109000FFFFFFFFFFFFFFFFFFFFFFFFFFFFFFFF60
:1010A000FFFFFFFFFFFFFFFFFFFFFFFFFFFFFFFF50
:1010B000FFFFFFFFFFFFFFFFFFFFFFFFFFFFFFFF40
:1010C000FFFFFFFFFFFFFFFFFFFFFFFFFFFFFFFF30
:1010D000FFFFFFFFFFFFFFFFFFFFFFFFFFFFFFFF20
:1010E000FFFFFFFFFFFFFFFFFFFFFFFFFFFFFFFF10
:1010F000FFFFFFFFFFFFFFFFFFFFFFFFFFFFFFFF00
:10110000FFFFFFFFFFFFFFFFFFFFFFFFFFFFFFFFEF
:10111000FFFFFFFFFFFFFFFFFFFFFFFFFFFFFF00DE
:1011200000000000000000000000000000000000BF
:1011300000000000000000000000000000000000AF
:10114000000000000000000000000000000000009F
:10115000000000000000000000000000000000008F
:10116000000000000000000000000000000000007F
:10117000000000000000000000000000000000006F
:10118000000000000000000000000000000000005F
:10119000000000000000000000000000000000004F
:1011A000000000000000000000000000000000003F
:1011B000000000000000000000000000000000002F
:1011C000000000000000000000000000000000001F
:1011D000000000000000000000000000000000000F
:1011E00000000000000000000000000000000000FF
:1011F00000000000000000000000000000000000EF
:1012000000000000000000000000000000000000DE
:1012100000000000000000000000000000000000CE
:1012200000000000000000000000000000000000BE
:1012300000000000000000000000000000000000AE
:10124000000000000000000000000000000000009E
:10125000000000000000000000000000000000008E
:10126000000000000000000000000000000000007E
:10127000000000404040404040404040404040402E
:10128000404040000000000000000000000000009E
:10129000000000404040404040404040404040400E
:1012A000404040404040400000000000000000007E
:1012B00000000000000000404040404040404040EE
:1012C000404040404040404040404000000000005E
:1012D00000000000000000000000004040404040CE
:1012E000404040404040404040404040404040003E
:1012F00000000000000000000000000000000040AE
:1013000040404040404040404040404040404040DD
:10131000404040000000000000000000000000000D
:10132000000000404040404040404040404040407D
:1013300040404040404040000000000000000000ED
:10134000000000000000004040404040404040405D
:1013500040404000000000404040400000000000CD
:10136000000000404040400000000000000000403D
:1013700040404040404040000000004040404000AD
:10138000000000000000004040404000000000005D
:10139000000000404040404040404000000000004D
:1013A000000000000000000000000000000000003D
:1013B000000000000000004040404040404040002D
:1013C000000000000000000000000000000000001D
:1013D000000000000000000000000000000000000D
:1013E00000000040404040404040400000000000FD
:1013F00000000000000000000000004040404040AD
:10140000404040000000004040404040404040001C
:1014100000000000000000000000000000000000CC
:1014200000000040404040000000000000000000BC
:1014300000000000000000000000000000000000AC
:10144000000000000000004040404000000000009C
:10145000000000000000000000000000000000008C
:10146000000000000000000000000040404040007C
:10147000000000040404040000000000000000005C
:10148000000000000000000000000000000000005C
:10149000000000000000000000000040404040400C
:1014A000404040040404040000000000000000006C
:1014B00000000040404040000000000404040444D8
:1014C0004444444444444400000000000000000040
:1014D00000000000000000060606060202020204E8
:1014E0000404040000000044444444020202024692
:1014F00046464642424242060606060202020202F0
:10150000020202020202020A0A0A0A4A4A4A4A027B
:10151000020202B4B4B4B4F6F6F6F600000000021B
:10152000020202020202020202020202020202029B
:101530000202020202020202020202000000000095
:10154000000000000000000000000000000000009B
:10155000000000000000000000000000000000008B
:101560000000000000000000000000020202020271
:101570000202020000000000000000000000000263
:10158000020202020202020202020202020202023B
:10159000020202020202020202020202020202022B
:1015A00002020202020202424242420A0A0A0A0AF3
:1015B0000A0A0A02020202020202020202020202F3
:1015C00002020200000000000000004040404040D5
:1015D000404040404040400000000000000000004B
:1015E00000000020202020202020200000000020DB
:1015F000202020020202020202020200000000403B
:101600004040400000000002020202020202020208
:10161000020202020202024242424242424242426A
:1016200042424202020202020202020202020202DA
:10163000020202020202020202020202020202028A
:101640000202024A4A4A4A0A0A0A0A404040400044
:10165000000000404040400000000000000000008A
:1016600000000000000000000000002020202020DA
:101670002020200000000020202020020202020280
:101680000202020000000000000000000000000252
:101690000202020606060602020202020202020616
:1016A000060606020202020202020202020202020E
:1016B000020202020202020202020202020202020A
:1016C00002020202020202020202020202020202FA
:1016D0000202020000000000000000080808080CD8
:1016E0000C0C0C00000000040404040000000000C6
:1016F00000000020202020202020204040404020CA
:101700002020200202020202020202000000000069
:1017100000000000000000020202020202020202B7
:101720000202020202020242424242020202020299
:101730000202020202020202020202020202020289
:101740000202020202020202020202020202020279
:101750000202024646464606060606000000000053
:101760000000000000000004040404040404040455
:101770000404040C0C0C0C0C0C0C0C242424242C41
:101780002C2C2C0404040464646464060606060617
:101790000606060404040404040404040404040601
:1017A00006060606060606464646460202020202ED
:1017B00002020202020202020202020606060602F9
:1017C00002020202020202020202020202020202F9
:1017D00002020202020202020202020202020202E9
:1017E000020202404040400000000084848484C41F
:1017F000C4C4C40000000080808080000000000499
:1018000004040424242424242424240C0C0C0C0C70
:101810000C0C0C060606060E0E0E0E040404040440
:101820000404040404040444444444040404044438
:1018300044444404040404444444440404040404A8
:10184000040404000000000000000000000000008C
:101850000000008080808000000000000000000088
:101860000000000000000000000000000000000078
:101870000000000808080800000000000000000048
:101880000000008484848484848484202020202494
:101890002424240000000080808080828282828252
:1018A000828282C8C8C8C8C8C8C8C88080808088EA
:1018B0008888888080808080808080808080808010
:1018C0008080808080808080808080808080808018
:1018D0008080808080808080808080000000000088
:1018E00000000000000000000000004444444400E8
:1018F00000000000000000000000000000000000E8
:10190000000000000000000000000000000000A532
:10191000A5A5A5F6F6F6F6000000000000000020E0
:1019200020202020202020C4C4C4C4C4C4C4C402B5
:101930000202020606060600000000C0C0C0C0C0C9
:10194000C0C0C0C0C0C0C0C8C8C8C8C8C8C8C8C057
:10195000C0C0C0C0C0C0C0C0C0C0C0C8C8C8C8C85F
:10196000C8C8C8C8C8C8C8C8C8C8C8C8C8C8C8C8F7
:10197000C8C8C8C8C8C8C8C8C8C8C8C8C8C8C808A7
:1019800008080808080808080808080808080808D7
:1019900008080808080808080808080808080800CF
:1019A000000000000000002020202020202020082F
:1019B000080808000000000202020202020202C43B
:1019C000C4C4C4C4C4C4C4000000000404040400AB
:1019D00000000040404040404040404040404048BF
:1019E00048484848484848404040404040404040BF
:1019F000404040484848484848484848484848487F
:101A00004848484848484848484848484848484856
:101A10004848484848484808080808080808080886
:101A2000080808080808084C4C4C4C080808082806
:101A3000282828282828280000000020202020020C
:101A40000202020202020200000000000000000088
:101A500000000002020202C6C6C6C6C6C6C6C6024C
:101A60000202020202020202020202464646464602
:101A7000464646464646464E4E4E4E4E4E4E4E46C6
:101A80004646464E4E4E4E464646464646464646D6
:101A900046464646464646444444444444444444F8
:101AA000444444444444444444444444444444003A
:101AB0000000000000000020202020202020200026
:101AC0000000002020202002020202020202020086
:101AD0000000000000000000000000020202020AF4
:101AE0000A0A0A020202020202020202020202C6FA
:101AF000C6C6C6C6C6C6C60202020202020202026A
:101B00000202024646464646464646464646464E39
:101B10004E4E4E4E4E4E4E464646464E4E4E4E440F
:101B20004444444444444444444444444444444475
:101B30004444444444444444444444444444446445
:101B40006464646464646400000000202020200257
:101B50000202020202020244444444000000000067
:101B6000000000020202020202020202020202025B
:101B70000202020202020202020202020202020245
:101B80000202020202020246464646464646460215
:101B90000202024242424282828282060606060611
:101BA000060606060606060C0C0C0C0C0C0C0C04A7
:101BB0000404040C0C0C0C040404040404040404C5
:101BC00004040404040404242424242424242404D5
:101BD0000404040404040406060606262626262019
:101BE00020202022222222202020202020202020ED
:101BF00020202020202020202020202020202020E5
:101C000020202020202020202020202020202028CC
:101C10002828282020202020202020202020204488
:101C200044444444444444000000004040404000D8
:101C30000000000404040404040404040404040C68
:101C40000C0C0C0C0C0C0C040404040C0C0C0C24DC
:101C50002424242424242404040404040404040662
:101C60000606062626262624242424242424242486
:101C700024242426262626323232322222222222EE
:101C80002222222222222226262626222222222224
:101C90002222222222222222222222222222222224
:101CA00022222222222222121212120202020202F4
:101CB00002020202020202444444444444444410E6
:101CC0001010105050505010101010040404040450
:101CD000040404040404042C2C2C2C3C3C3C3C0444
:101CE00004040434343434060606061E1E1E1E0C7C
:101CF0000C0C0C1C1C1C1C0C0C0C0C1E1E1E1E0E9A
:101D00000E0E0E0E0E0E0E0E0E0E0E0C0C0C0C59B0
:101D1000595959000000000E0E0E0E0A0A0A0A0A4E
:101D20000A0A0A0A0A0A0A0A0A0A0A4A4A4A4A0A13
:101D30000A0A0A0A0A0A0A0A0A0A0A02020202022B
:101D4000020202020202020202020208080808005D
:101D5000000000000000000000000044444444442F
:101D600044444400000000000000002020202064C3
:101D700064646444444444646464644E4E4E4E4E11
:101D80004E4E4E4545454544444444444444444EE7
:101D90004E4E4E4E4E4E4E4E4E4E4E4E4E4E4E4E63
:101DA0004E4E4E4E4E4E4E4E4E4E4E4E4E4E4E4E53
:101DB0004E4E4E0B0B0B0B0A0A0A0A0A0A0A0A0AB3
:101DC0000A0A0A0E0E0E0E0A0A0A0A0B0B0B0B0B5E
:101DD0000B0B0B01010101000000000000000000DE
:101DE00000000000000000010101010000000001EE
:101DF000010101646464646565656500000000219B
:101E000021212102020202474747474444444444F7
:101E10004444444C4C4C4C4E4E4E4E464646464630
:101E2000464646464646464E4E4E4E4E4E4E4E4E0A
:101E30004E4E4E4E4E4E4E4E4E4E4E4E4E4E4E4EC2
:101E40004E4E4E4E4E4E4E4E4E4E4E0A0A0A0A0A06
:101E50000A0A0A0A0A0A0A0A0A0A0A0808080808EC
:101E6000080808080808080808080800000000001A
:101E700000000000000000000000002828282820A2
:101E80002020200000000020202020464646464614
:101E90004646460000000056565656000000000018
:101EA00000000010101010000000000808080808CA
:101EB0000808080000000000000000000000000802
:101EC0000808080808080808080808080808080892
:101ED0000808080808080808080808080808080882
:101EE0000808080808080808080808080808080872
:101EF0000808080C0C0C0C08080808080808080852
:101F00000808082020202020202020000000002099
:101F1000202020020202020202020200000000024F
:101F200002020254545454545454540000000044C7
:101F300044444400000000000000000000000000D5
:101F40000000000808080808080808000000000051
:101F50000000000000000008080808080808080839
:101F600008080808080808080808080808080808F1
:101F700008080808080808080808080808080808E1
:101F800008080808080808080808087878787838E1
:101F900038383808080808292929290202020212BB
:101FA000121212111111111212121210101010101F
:101FB00010101010101010101010105454545454CD
:101FC00054545410101010D0D0D0D0101010101441
:101FD00014141414141414141414141C1C1C1C1C99
:101FE0001C1C1C040404040C0C0C0C040404040449
:101FF00004040404040404040404040404040404A1
:102000000404040404040404040404040404040490
:10201000040404313131313131313100000000210B
:10202000212121060606061212121210101010129B
:10203000121212909090901010101010101010109A
:102040001010101010101010101010101010101090
:10205000101010545454545454545410101010D0A0
:10206000D0D0D010101010141414140404040484DC
:102070008484840C0C0C0C8C8C8C8C848484840460
:10208000040404040404048C8C8C8C0C0C0C0C0CC8
:102090000C0C0C8C8C8C8C0C0C0C0C3D3D3D3DBD0B
:1020A000BDBDBD0C0C0C0C2D2D2D2D0A0A0A0A1AD3
:1020B0001A1A1A181818181A1A1A1AD8D8D8D81892
:1020C00018181818181818181818181010101010B8
:1020D00010101010101010101010101818181810E0
:1020E0001010101010101010101010D4D4D4D4D41C
:1020F000D4D4D4000000000404040400000000C094
:10210000C0C0C0C0C0C0C0929292929797979700EB
:10211000000000C0C0C0C0C8C8C8C8C8C8C8C8C0BF
:10212000C0C0C0C0C0C0C0C0C0C0C0C8C8C8C8F956
:10213000F9F9F9F9F9F9F9C8C8C8C8F8F8F8F8CA06
:10214000CACACACBCBCBCBC9C9C9C9C9C9C9C909B4
:102150000909090B0B0B0B0B0B0B0B0B0B0B0B0BD5
:102160000B0B0B0B0B0B0B0B0B0B0B0B0B0B0B03C7
:10217000030303030303030303030303030303032F
:10218000030303030303030202020202020202C664
:10219000C6C6C6C6C6C6C6000000000000000000D5
:1021A000000000C4C4C4C4C4C4C4C4C4C4C4C4CC33
:1021B000CCCCCCCCCCCCCCF5F5F5F5F5F5F5F5C41F
:1021C000C4C4C4FCFCFCFCCECECECECFCFCFCFCD92
:1021D000CDCDCDCDCDCDCDCDCDCDCDCFCFCFCFCF25
:1021E000CFCFCFCFCFCFCF0B0B0B0B0B0B0B0B0BE3
:1021F0000B0B0B0B0B0B0B0F0F0F0F0B0B0B0B0B1F
:102200000B0B0B0B0B0B0B83838383030303030267
:1022100002020202020202020202020202020200A0
:10222000000000000000004444444444444444008E
:102230000000004040404000000000040404043559
:10224000353535353535358C8C8C8C1D1D1D1D86F1
:102250008686862E2E2E2E24242424A4A4A4A424F0
:10226000242424262626262626262626262626A694
:10227000A6A6A6A6A6A6A6A6A6A6A6262626262282
:10228000222222222222222222222222222222E26E
:10229000E2E2E222222222020202020202020202FE
:1022A0000202020202020200000000000000000818
:1022B000080808000000000000000000000000C442
:1022C000C4C4C4C4C4C4C43131313131313131002A
:1022D000000000D5D5D5D5C6C6C6C6E6E6E6E6EC0E
:1022E000ECECECECECECECE4E4E4E4EEEEEEEEE64C
:1022F000E6E6E6E6E6E6E6E6E6E6E6E6E6E6E6E67E
:10230000E6E6E6E6E6E6E6E6E6E6E6E6E6E6E6E66D
:10231000E6E6E6E6E6E6E622222222222222220261
:10232000020202020202020606060602020202007F
:10233000000000000000000000000000000000009D
:10234000000000000000000000000000000000315C
:1023500031313131313131C4C4C4C4C4C4C4C40204
:102360000202023333333331313131F7F7F7F7F506
:10237000F5F5F5F5F5F5F5FDFDFDFDFDFDFDFDF5CD
:10238000F5F5F5F5F5F5F5F5F5F5F5FDFDFDFDFDD5
:10239000FDFDFDFDFDFDFDFDFDFDFDFDFDFDFDFD6D
:1023A000FDFDFDFDFDFDFDCCCCCCCCCCCCCCCC08DA
:1023B000080808080808080808080808080808485D
:1023C00048484808080808080808080808080800D5
:1023D000000000000000003131313131313131086D
:1023E000080808010101010000000030303030F41D
:1023F000F4F4F4F4F4F4F432323232B0B0B0B03079
:102400003030307474747474747474747474747C50
:102410007C7C7C7C7C7C7C74747474747474747444
:102420007474747C7C7C7C7C7C7C7C7C7C7C7C4C34
:102430004C4C4C4C4C4C4C4C4C4C4C4C4C4C4C4CDC
:102440004C4C4C4C4C4C4C08080808080808080830
:1024500008080808080808888888880808080839CB
:102460003939393939393900000000111111110297
:1024700002020222222222202020202020202020AE
:1024800020202022222222E6E6E6E6E6E6E6E62212
:102490002222222222222222222222E6E6E6E6E648
:1024A000E6E6E6E6E6E6E6EEEEEEEEEEEEEEEEE68C
:1024B000E6E6E6E6E6E6E6C6C6C6C6CECECECECEB4
:1024C000CECECECECECECECCCCCCCCCCCCCCCCCC3E
:1024D000CCCCCCCCCCCCCCCCCCCCCCCCCCCCCC0800
:1024E0000808080808080839393939393939394CA0
:1024F0004C4C4C191919190A0A0A0A2A2A2A2A20A4
:102500002020202B2B2B2B1F1F1F1F000000002023
:1025100020202020202020222222222222222222A9
:102520002222222222222222222222E6E6E6E6E6B7
:10253000E6E6E6222222222222222222222222E66B
:10254000E6E6E6E6E6E6E6E6E6E6E6CECECECECEA3
:10255000CECECEC6C6C6C6C6C6C6C6C4C4C4C4CC05
:10256000CCCCCCCCCCCCCCCCCCCCCCCCCCCCCCCCAB
:10257000CCCCCCCCCCCCCCCCCCCCCCFDFDFDFDFDA6
:10258000FDFDFD08080808181818180A0A0A0A2B81
:102590002B2B2BA9A9A9A92B2B2B2B29292929299D
:1025A0002929292121212121212121212121212103
:1025B00021212129292929212121212121212121EB
:1025C000212121E5E5E5E5E5E5E5E52121212121DB
:1025D00021212100000000C4C4C4C4C4C4C4C4C4B4
:1025E000C4C4C4CCCCCCCCCCCCCCCCC4C4C4C4C46B
:1025F000C4C4C4C4C4C4C4CCCCCCCCCCCCCCCCCC53
:10260000CCCCCCFDFDFDFDFDFDFDFDCCCCCCCCDD71
:10261000DDDDDDCECECECEEEEEEEEE282828282A69
:102620002A2A2A2828282828282828686868682824
:102630002828282828282828282828202020202042
:10264000202020202020202020202020202020208A
:102650002020202020202020202020C4C4C4C4C446
:10266000C4C4C4000000000000000000000000C45A
:10267000C4C4C4C4C4C4C4C4C4C4C4CCCCCCCCCCF2
:10268000CCCCCCC4C4C4C4C4C4C4C4F5F5F5F5FDF5
:10269000FDFDFDCCCCCCCCDDDDDDDDCECECECEEE79
:1026A000EEEEEEECECECECECECECECECECECECEE62
:1026B000EEEEEE2A2A2A2A2A2A2A2A2A2A2A2A2A2E
:1026C0002A2A2A2E2E2E2E2A2A2A2A2A2A2A2A2A5A
:1026D0002A2A2A22222222222222222222222222C2
:1026E000222222020202020202020202020202026A
:1026F00002020244444444444444440000000000B4
:102700000000000000000044444444444444444465
:102710004444447D7D7D7D7D7D7D7D4444444444B1
:10272000444444464646467F7F7F7F7D7D7D7D7D58
:102730007D7D7D7D7D7D7D7F7F7F7F7F7F7F7F7FB7
:102740007F7F7F7F7F7F7F7F7F7F7F3B3B3B3B3BED
:102750003B3B3B3B3B3B3B3B3B3B3BBBBBBBBB3BC9
:102760003B3B3B3B3B3B3B3B3B3B3B0202020202D6
:102770000202020202020202020202080808080023
:102780000000000000000000000000C4C4C4C4C475
:10279000C4C4C4000000000000000031313131F534
:1027A000F5F5F5C4C4C4C4C5C5C5C5CECECECEFEF0
:1027B000FEFEFEF4F4F4F4F6F6F6F6F4F4F4F4FCAB
:1027C000FCFCFCFCFCFCFCFCFCFCFCFCFCFCFCFC49
:1027D000FCFCFCFCFCFCFCFCFCFCFCFCFCFCFCFC39
:1027E000FCFCFC383838383838383838383838381D
:1027F0003838384C4C4C4C080808080808080808B9
:1028000008080800000000000000000000000000B0
:1028100000000000000000000000000000000000B8
:10282000000000F5F5F5F5F5F5F5F50000000001FF
:1028300001010102020202F6F6F6F6F4F4F4F4F6EF
:10284000F6F6F6FCFCFCFCFCFCFCFCF4F4F4F4FCFA
:10285000FCFCFCF4F4F4F4F4F4F4F4F4F4F4F4F420
:10286000F4F4F4F4F4F4F4F4F4F4F4F4F4F4F4F428
:10287000F4F4F4F4F4F4F4F4F4F4F40000000000DC
:102880000000000000000000000000808080800048
:102890000000000000000000000000000000000038
:1028A0000000000000000000000000313131313133
:1028B0003131310000000020202020C6C6C6C6D716
:1028C000D7D7D7111111111111111111111111D7E0
:1028D000D7D7D7D7D7D7D7D7D7D7D7DFDFDFDFDF60
:1028E000DFDFDFD7D7D7D7D7D7D7D7D7D7D7D7DF58
:1028F000DFDFDFDFDFDFDFDFDFDFDFDFDFDFDFAF18
:10290000AFAFAFF7F7F7F700000000DFDFDFDFCE94
:10291000CECECECECECECECECECECECECECECE089D
:102920000808080808080808080808080808084CE3
:102930004C4C4C0808080808080808080808083122
:102940003131313131313100000000202020200AA6
:102950000A0A0A131313131111111113131313D5A8
:10296000D5D5D5D5D5D5D5111111111111111111FB
:10297000111111D5D5D5D5D5D5D5D5D5D5D5D5DD4B
:10298000DDDDDDDDDDDDDDD5D5D5D5D5D5D5D5D5BF
:10299000D5D5D5DDDDDDDDCCCCCCCCCCCCCCCCCC18
:1029A000CCCCCCCCCCCCCCCCCCCCCCCCCCCCCCCC67
:1029B000CCCCCCCCCCCCCC0808080808080808083B
:1029C00008080808080808B9B9B9B93939393908FF
:1029D00008080829292929020202021212121210DB
:1029E00010101012121212101010101010101010DF
:1029F00010101010101010D4D4D4D4D4D4D4D410B7
:102A00001010109090909010101010545454545472
:102A1000545454545454545C5C5C5C5C5C5C5C4446
:102A20004444444C4C4C4C44444444444444444446
:102A30004444444444444444444444444444444456
:102A40004444444444444444444444444444443159
:102A50003131313131313100000000303030304619
:102A6000464646030303030101010101010101017F
:102A70000101010303030303030303030303030B24
:102A80000B0B0B03030303030303030303030347BA
:102A90004747474747474703030303C7C7C7C7031A
:102AA0000303030303030302020202020202020AF7
:102AB0000A0A0A0A0A0A0A000000000808080800B0
:102AC0000000000000000000000000000000000006
:102AD000000000000000003131313131313131006E
:102AE0000000003030303002020202030303030111
:102AF00001010101010101818181810303030303BC
:102B00000303030303030303030303030303030395
:102B10000303030303030303030303030303030385
:102B200003030303030303C7C7C7C7C7C7C7C70256
:102B300002020246464646020202028282828280E7
:102B40008080808080808088888888888888888045
:102B5000808080808080808080808088888888B91C
:102B6000B9B9B9B9B9B9B988888888B8B8B8B88ACC
:102B70008A8A8A8B8B8B8B8989898989898989093A
:102B80000909090B0B0B0B0B0B0B0B0B0B0B0B0F97
:102B90000F0F0F0B0B0B0B0B0B0B0B0B0B0B0B0381
:102BA00003030303030303030303030303030303F5
:102BB000030303030303030202020202020202C62A
:102BC000C6C6C6C6C6C6C60000000004040404008B
:102BD000000000C0C0C0C0C0C0C0C0C0C0C0C0C82D
:102BE000C8C8C8C8C8C8C8F1F1F1F1F1F1F1F1C025
:102BF000C0C0C0D8D8D8D8CACACACAEBEBEBEBE978
:102C0000E9E9E9EBEBEBEBE9E9E9E9E9E9E9E9E92C
:102C1000E9E9E9E9E9E9E9292929292929292929E4
:102C20002929292929292969696969292929292914
:102C3000292929292929292121212121212121006D
:102C40000000000000000008080808000000000064
:102C500000000000000000C4C4C4C4C4C4C4C40054
:102C6000000000C0C0C0C00000000004040404351F
:102C7000353535353535350C0C0C0C1D1D1D1D0637
:102C800006060626262626242424242E2E2E2E2C26
:102C90002C2C2C2C2C2C2C2C2C2C2C2C2C2C2C2C74
:102CA0002C2C2C2C2C2C2C2C2C2C2C2C2C2C2C2868
:102CB000282828282828282828282828282828A814
:102CC000A8A8A8282828280808080808080808002C
:102CD00000000000000000000000000000000000F4
:102CE00000000000000000000000000000000044A0
:102CF00044444444444444313131314848484847CD
:102D000047474700000000B5B5B5B50000000041D9
:102D100041414142424242727272727878787878C8
:102D20007878787070707072727272727272727A71
:102D30007A7A7A7A7A7A7A7A7A7A7A7A7A7A7A7AF3
:102D40007A7A7A7A7A7A7A7A7A7A7A7A7A7A7A7AE3
:102D50007A7A7A3A3A3A3A3A3A3A3A0A0A0A0A0A03
:102D60000A0A0A4A4A4A4A0A0A0A0A0808080808CD
:102D7000080808000000000000000000000000003B
:102D8000000000080808080000000031313131312E
:102D9000313131C4C4C4C4C5C5C5C502020202B2C2
:102DA000B2B2B23030303076767676747474747431
:102DB0007474747C7C7C7C7C7C7C7C747474747493
:102DC000747474747474747C7C7C7C7C7C7C7C7C7B
:102DD0007C7C7C7C7C7C7C7C7C7C7C7C7C7C7C7C33
:102DE0007C7C7C4C4C4C4C4C4C4C4C0808080808E7
:102DF0000808080808080808080808888888880853
:102E00000808080A0A0A0A08080808000000000062
:102E100000000031313131313131310000000030FA
:102E20003030300000000001010101C5C5C5C5C535
:102E3000C5C5C5010101010505050501010101C166
:102E4000C1C1C1C3C3C3C3C1C1C1C1CBCBCBCBC93A
:102E5000C9C9C9C1C1C1C1CBCBCBCBC1C1C1C1C122
:102E6000C1C1C1C1C1C1C1C1C1C1C1C2C2C2C2C24D
:102E7000C2C2C2C2C2C2C2C0C0C0C0C0C0C0C0C044
:102E8000C0C0C00000000000000000000000000002
:102E900000000004040404000000001111111111CD
:102EA0001111110000000010101010222222220324
:102EB00003030309090909010101010101010103DA
:102EC000030303C7C7C7C7C7C7C7C703030303C7EE
:102ED000C7C7C70303030303030303030303030376
:102EE0000303030B0B0B0B0B0B0B0B030303030B6A
:102EF0000B0B0B0202020202020202020202020297
:102F000002020200000000000000000000000000BB
:102F100000000000000000000000000000000000B1
:102F20000000003131313131313131808080800118
:102F300001010102020202323232323030303032CC
:102F4000323232303030303030303030303030307B
:102F50003030303030303030303030F4F4F4F4F49D
:102F6000F4F4F4303030303030303030303030F451
:102F7000F4F4F4F4F4F4F4F4F4F4F4CCCCCCCCCCD9
:102F8000CCCCCCC4C4C4C4CCCCCCCCE4E4E4E4C449
:102F9000C4C4C4C4C4C4C4C4C4C4C4C4C4C4C4C4F1
:102FA000C4C4C4C4C4C4C4C4C4C4C4D5D5D5D5D58C
:102FB000D5D5D50000000011111111020202020244
:102FC0000202024444444402020202202020200063
:102FD0000000002020202000000000000000002051
:102FE0002020200000000000000000000000000081
:102FF000000000E4E4E4E4E4E4E4E42020202040F1
:10300000404040000000008484848484848484845C
:10301000848484ACACACAC8C8C8C8C848484848CA8
:103020008C8C8C8484848484848484848484848448
:1030300084848495959595959595958484848495B7
:103040009595958686868686868686000000000091
:10305000000000202020200202020222222222025E
:1030600002020202020202222222220202020202C0
:103070000202020202020202020202222222222290
:103080002222222222222202020202C2C2C2C2C280
:10309000C2C2C2020202024242424200000000805A
:1030A00080808080808080808080808888888888F8
:1030B0008888888080808080808080B1B1B1B1B9FB
:1030C000B9B9B988888888999999998A8A8A8AAA7F
:1030D000AAAAAAA8A8A8A8A8A8A8A8A8A8A8A8AA68
:1030E000AAAAAA2A2A2A2A2A2A2A2A2A2A2A2A2AC0
:1030F0002A2A2AEAEAEAEA4E4E4E4E838383830066
:103100000000002A2A2A2A2A2A2A2A2A2A2A2A22A5
:1031100022222222222222222222222222222202AF
:10312000020202020202020202020202020202C0C1
:10313000C0C0C0C0C0C0C00000000000000000004F
:10314000000000C0C0C0C0C0C0C0C0C0C0C0C0F986
:10315000F9F9F9F9F9F9F9C0C0C0C0D8D8D8D8C27E
:10316000C2C2C2E3E3E3E3E1E1E1E1E3E3E3E3E19C
:10317000E1E1E1E1E1E1E1E1E1E1E1E1E1E1E1E13F
:10318000E1E1E1E1E1E1E1212121212121212121EF
:10319000212121212121212121212121212121211F
:1031A0002121212121212100000000000000000038
:1031B00000000000000000080808080000000000EF
:1031C00000000000000000C0C0C0C0C0C0C0C000FF
:1031D0000000000000000031313131F1F1F1F1C0A7
:1031E000C0C0C0D1D1D1D1CACACACAEAEAEAEAE0AB
:1031F000E0E0E0E2E2E2E2E0E0E0E0E8E8E8E8E89F
:10320000E8E8E8E8E8E8E8E8E8E8E8E8E8E8E8E83E
:10321000E8E8E8E8E8E8E8E8E8E8E8E8E8E8E828EE
:1032200028282828282828282828282828282848FE
:103230004848480808080808080808080808080056
:10324000000000000000000000000000000000007E
:10325000000000000000000000000000000000F17D
:10326000F1F1F1F1F1F1F1000000004141414100C3
:10327000000000B0B0B0B0B0B0B0B0B0B0B0B0BA54
:10328000BABABABABABABAB0B0B0B0B0B0B0B0B0F8
:10329000B0B0B0B0B0B0B0B0B0B0B0B0B0B0B0B02E
:1032A000B0B0B0B0B0B0B0B0B0B0B0B0B0B0B0B01E
:1032B000B0B0B0B0B0B0B00000000000000000003E
:1032C00000000000000000000000000000000000FE
:1032D00000000000000000000000000000000000EE
:1032E00000000000000000000000000000000000DE
:1032F00000000000000000000000000000000000CE
:1034F000000000BFBFBFBF3D3D3D3D0000000000DC
:1035000000000000000000000001100000000000AA
:1035100000000000000000000000000000000000AB
:103520000000000000000000000008800000000013
:10353000000000000000000000000036E82000004D
:10354000000000000000000000000000000000007B
:10355000000000000000000000000000000000006B
:10356000000000000000000000000000000000005B
:103570000000000000000000000000000F331700F2
:10358000000000000000000000000000000000003B
:10359000000000000000000000000000000000002B
:1035A000000000000000000000000000000000001B
:1035B0000000000000000000000000000000333C9C
:1035C00017000000000000000000000000000000E4
:1035D00000000000000000000000000000000000EB
:1035E00000000000000000000000000000000000DB
:1035F00000000000000000000000000000000000CB
:10360000F331700000000000000000000000000026
:1036100000000000000000000000000000000000AA
:10362000000000000000000000000000000000009A
:10363000000000000000000000000000000000008A
:10364000000333C170000000000000000000000013
:10365000000000000000000000000000000000006A
:10366000000000000000000000000000000000005A
:10367000000000000000000000000000000000004A
:103680000000000F331700000000000000000000E1
:10369000000000000000000000000000000000002A
:1036A000000000000000000000000000000000001A
:1036B000000000000000000000000000000000000A
:1036C0000000000000333C17000000000000000074
:1036D00000000000000000000000000000000000EA
:1036E00000000000000000000000000000000000DA
:1036F00000000000000000000000000000000000CA
:1037000000000000000000F3317024048004400435
:1037100028400006480042841800140002400001BE
:10372000488000000064800084048006480008414E
:1037300084101488012240110821488012240110AD
:103740008228000004922000042018001400122493
:103750000008200012240008244004200000440037
:10376000420034CC62000000880000180000000015
:10377000000280042004800000420180000012004A
:1037800000000012000082000000480000000180DC
:103790000140012240000140002400000018000008
:1037A0000044000004118480002418581082480549
:1037B00088024011F58C207484880522A44058802A
:1037C00007484880522A441848014E8480126248B3
:1037D00041848014E84801242058800748488052DA
:1037E0002A440588007484880522A4418591229288
:1037F0004E848012624841949A2214E8480126249B
:103800008458941A227484880522A4405992282549
:103810004400522A441848229244401262484018F8
:10382000B2281454801262494858941A22544018FD
:103830005A2A4405112292854400522E484185910E
:103840002292444032EC5502404800440042840039
:103850000064800428418001400024000014880096
:1038600000000648000840480064800084184101B8
:10387000488012240110014880122401108228007F
:1038800000049220000420180014001224000820D4
